:020000040800F2
:100000000017002015020008353700080F270008E8
:1000100000000000000000000000000000000000E0
:10002000000000000000000000000000453900084A
:1000300000000000000000009B0100085539000886
:100040004502000845020008450200084502000874
:100050004502000845020008450200084502000864
:100060004502000845020008450200084502000854
:100070004502000845020008450200084502000844
:1000800045020008000000000000000045020008D2
:100090000000000045020008FD390008152700088F
:1000A0000000000045020008450200084502000863
:1000B0004502000800000000450200084502000853
:1000C00000F002F800F03EF80CA030C80838241800
:1000D0002D18A246671EAB4654465D46AC4201D180
:1000E00000F030F87E460F3E0FCCB6460126334274
:1000F00000D0FB1AA246AB4633431847BC4B000066
:10010000DC4B0000103A02D378C878C1FAD8520705
:1001100001D330C830C101D504680C6070470000BD
:100120000023002400250026103A01D378C1FBD813
:10013000520700D330C100D50B6070471FB51FBDFB
:1001400010B510BD00F0B4FE1146FFF7F7FF03F045
:1001500009FD00F0CCFE03B4FFF7F2FF03BC00F092
:1001600001FF0000084B19680868203080F30988F7
:10017000022080F31488BFF36F8F3FBCAE4608BCEB
:1001800004BC62B6184700004C000020EFF310805A
:1001900072B6704780F310887047EFF309800E4BFA
:1001A0001A6820381060F0C044464D4656465F46F7
:1001B000F0C008B572B604F0B5F962B60CBC1168AF
:1001C00008681030F0C8A046A946B246BB4680F386
:1001D00009882038F0C818474C00002070B5054643
:1001E0000C46164602E00FCC0FC5103E102EFAD278
:1001F000082E02D303CC03C5083E042E07D301CC3E
:1002000001C5361F03E021782970641C6D1C761E21
:10021000F9D270BD0F4880F308880F480168090EB5
:100220000E4A914205D10E480E4901600E480F4911
:1002300001600F4880470F480047FEE7FEE7FEE7F2
:10024000FEE7FEE7FEE700000B480C490C4A0D4BA9
:100250007047000000170020040000001F0000008D
:1002600018100240010000000000014000000000E2
:10027000F9390008C1000008001100200017002013
:100280000013002000130020FEB5054610460C4662
:10029000184373D0AE468C460020AD1A01469C41EF
:1002A00067D36646002701243D46B61A9D4102D316
:1002B00013463A462124654676462F04360C3E43C3
:1002C0002D0CB61A9D4104D3150C1B042B431204AC
:1002D0001034654676462F06360A3E432D0AB61A76
:1002E0009D4104D3150E1B022B43120208346546B0
:1002F00076462F0736093E432D09B61A9D4104D391
:10030000150F1B012B431201241D65467646AF07CE
:10031000B6083E43AD08B61A9D4104D3950F9B0025
:100320002B439200A41C65467646EF0776083E43B1
:100330006D08B61A9D411AD392185B41641C16E0F1
:100340000018764665464941B71A9D4101910090D3
:1003500009D36046B11A98418E46844600980199A7
:100360000025401C6941DD0752082A435B08641ED2
:10037000E6D57246634603B0F0BDFFE700200146B4
:10038000C046C0462A462346F5E701E004C0091FDF
:100390000429FBD28B0701D50280801CC90700D03D
:1003A0000270704700290BD0C30702D00270401CB6
:1003B000491E022904D3830702D50280801C891EAE
:1003C000E3E70022EEE70022DFE7002203098B4289
:1003D0002CD3030A8B4211D300239C464EE00346E4
:1003E0000B433CD4002243088B4231D303098B4298
:1003F0001CD3030A8B4201D394463FE0C3098B42CE
:1004000001D3CB01C01A524183098B4201D38B0126
:10041000C01A524143098B4201D34B01C01A5241C9
:1004200003098B4201D30B01C01A5241C3088B420E
:1004300001D3CB00C01A524183088B4201D38B00F9
:10044000C01A524143088B4201D34B00C01A52419B
:10045000411A00D201465241104670475DE0CA0F72
:1004600000D04942031000D34042534000229C4632
:1004700003098B422DD3030A8B4212D3FC2289013C
:1004800012BA030A8B420CD3890192118B4208D312
:10049000890192118B4204D389013AD0921100E074
:1004A0008909C3098B4201D3CB01C01A5241830988
:1004B0008B4201D38B01C01A524143098B4201D3B5
:1004C0004B01C01A524103098B4201D30B01C01AE0
:1004D0005241C3088B4201D3CB00C01A524183085A
:1004E0008B4201D38B00C01A5241D9D243088B42B0
:1004F00001D34B00C01A5241411A00D20146634653
:1005000052415B10104601D34042002B00D54942B6
:10051000704763465B1000D3404201B50020C046DF
:10052000C04602BD70477047704700000246C80FC2
:10053000C00781434B0030B54B405B009B0D20D082
:100540001923DB06C91801231B05994220DB03246C
:10055000A40704251346AB400BD3002B04D1EB06B4
:1005600013409B00E34204D40124640700231219C2
:100570005941FF231B0599420BD2C9000143500F7B
:1005800009E0CB0204D501430803024305D0054826
:1005900030BDFF21C905084330BD084607210905C4
:1005A000884330BD0000C07FF0B50C46871A9C41DF
:1005B0000D46861A9D4103D2C01BA141D219634149
:1005C0000D0D1F0DC94EEC1BAE435CD07F057F0D9A
:1005D0000026002F51D02D05AC46A943DD02012392
:1005E000ED0A1B051D4320231B1B24D41746E7409F
:1005F000381871412F46E740CC199D4028183146E4
:1006000061410C0D27D161449A4013D50023401C51
:10061000594152000ED14008400001224B005205C2
:10062000D34207D305204007C14201D5B04900E0BD
:10063000B0493046F0BD6B00002A00D001229A1864
:100640001F23203C1B1B01D5002302E0E540281896
:1006500071410C0DD7D0012424050919C407CD0719
:1006600040084908E40F28436144002CD5D00024F9
:10067000401C61419A40D0D1CDE76A05520DD9D1D5
:10068000C90FC907D5E79C4D4E00002801D00124B1
:1006900000E0002434195F00002A01D0012600E0A8
:1006A0000026BE19954FAC420CD8AE420AD8B442CF
:1006B00006D001256D05EC42BCD010461946F0BDB0
:1006C0009942FCD000203946F0BDF0B51FB40C466D
:1006D0000F46811A9F412546861A9D4106D2012563
:1006E000ED076F40401ABC4152187B41210D1E0D91
:1006F0008D1BAC467D4D8D437ED075056D0D7CD038
:100700000D05AE46AC431B031B0B794D52429D4178
:10071000202366469B1B14D31746F7403818002643
:100720000090744160462F460741E41900989D40AF
:100730002818664116D4714671189A4025D50123B0
:1007400020E093182A466A415200002B00D0521C28
:100750001E23203E9B1B002B61DD3541EE17281820
:100760006641E8D5001876415B1C9A4000D3401CD6
:100770004B05F3181524E34010D3002B52D07146DB
:100780007118D30FC01802D3491C05B0F0BD012366
:10079000DB079A42F9D140084000F6E701225205F2
:1007A000B21801D1002853D00123CC0ADB029943AF
:1007B000891E002A08D1020C03D0020C0004103953
:1007C00002E00246002020390023550B05D1120219
:1007D0000823550B01D152010D23550C01D11201F3
:1007E0001B1DD50C01D192009B1C150D01D152008F
:1007F0005B1C2025EE1A01E02CE022E00546F540C6
:1008000015439840CA1AE10769181305C918002A48
:10081000BBDA032040070818C10FC9070FE0714673
:100820006118B2E7F10740080843711071444A00AB
:100830000CD001235B059A42A7D2C90FC90700203B
:10084000A3E74905490D26D1002001E00028F4D195
:1008500000219AE7284D6600002801D0012100E020
:10086000002171185F00002A01D0012600E0002657
:10087000BE19224FA94210D8AE420ED8B14208D0BC
:1008800001256D05E94206D01946A80241401046EF
:100890007BE79C4201D0214677E70020394674E788
:1008A00010B50C465C4005D50124E4076340FFF712
:1008B0000CFF10BDFFF778FE10BD30B40C465C4055
:1008C00004D50124E407634030BC6DE630BCFCE68F
:1008D00070B50124E40761400D465D4002D4FFF786
:1008E00063FE70BD6340FFF7F0FE70BDFF070000C0
:1008F0000000F0FF0000F07F0000E0FF0000F87F44
:10090000F0B58B4C0F09254689B0BD437BD01D093E
:100910002646AE43FAD00E465E402740F60F3E43D1
:10092000254071D024012142FBD0FF24AD19A4043D
:100930002D1B039501252D05DB02DB0AC9022B4384
:10094000C90A29431E010901040F130F05012143A0
:100950001701880B820391432D098C46A90B1E4376
:100960008A039543B30B9A0396433F09BA0B94034A
:10097000A74302962E467E430497B6464E19D719D2
:100980000C460196544305977E43371B7646BF1BA2
:100990003601B646BE0B361900967646BC043719AA
:1009A000009C01D3641C00946400002F01D0012638
:1009B0003443029E049F754366467E430496760048
:1009C00034196E0034190094029C019E1C19664370
:1009D000751BAE46069465464519059C05956C4306
:1009E000594375460891691A0191049E0146514385
:1009F000A41B0491611A009C0791E10605D06109CE
:100A00000122114302E072E06EE06109089D0027B7
:100A10002C0A2D066918049D7C412A0A2D066918A6
:100A2000019D6241AC0DAD026D185441079A910DC4
:100A3000920255196141029A644658435443069BF9
:100A4000059A5A43121A131B9A0E9B015B187A419E
:100A5000010B0005C3185141220A200644195A41CE
:100A60009A4200D2491C01204002814203D315233F
:100A70000226F64302E014230326F6432020C51A7B
:100A8000A9401746AF40DA400A4320460399D840B0
:100A90000914731819055118039A3843D2075140A5
:100AA000AC4009D00122944006D30022401C5141A1
:100AB000002C01D1400840001E4A934212D301226B
:100AC00003989206904207DB0520400709181A4850
:100AD0000143C012414004E0032040070818C10F41
:100AE000C907002009B0F0BD0020F107FAE705189A
:100AF0000C464C4111486D42A04115D394181A463A
:100B00005A410E48644290410ED301204A004005EC
:100B1000824209D35A00824206D35940C90F084A7B
:100B2000C90700201143DDE700200649DAE700008D
:100B30000000FF07FE070000FFFFFF7F0000E0FF4F
:100B40000000F07F0000F87F0121C9050123411852
:100B500042001B06D3185B0E0AD0C1100722D20632
:100B6000891840075242D14201D552008918704776
:100B7000090208D50146002A03D0C10FC907002089
:100B8000704710467047420202D000200249704769
:100B9000072109050143F4E70000F87FF0B5FF25C0
:100BA0002D04C609C209FF2704462E400137CB0990
:100BB0003E4348402A402B400746002A6BD0002B7A
:100BC00069D0AA4267D0AB4265D0002800DA32462D
:100BD0000125ED0529432C4309022002090AD21AF6
:100BE0004B0C7F24E31A434C000A7C44E35C7D24D5
:100BF0002404121914145B00A218884201D3521C59
:100C000000E0400049420C465C4324115C43DB0198
:100C10006415E318040A5C43C502200D0C464443E6
:100C20006419250A5D432303EC0C0D46654300035C
:100C30000019EB184C42A34201D35B18401CD405A9
:100C40002018002B07D05B00C91804D3401C0029D2
:100C500001D1400840003F2189048A4209D3002A7B
:100C600008DC1106090F04D0032149074018C00F02
:100C7000C007F0BD01224100120689187F225206EA
:100C80009142F6D205214907C84201D59010F0BD26
:100C9000FF20C005F0BD002F00DA32461648AA42F8
:100CA00007D2AB4205D21902090E17D0F80FC007C0
:100CB000F0BDFF2563002D06AB42F9D84900A942DB
:100CC000F6D8AB4201D1A942F2D0A94201D100210C
:100CD00001E061004908D0050843F0BD1102090E8A
:100CE000FBD0FF200243D005F0BD0A460146104666
:100CF00054E70000624000000000C07F0102C215FE
:100D000004D00123DB071943002A0ADB9E239A1A29
:100D100002D40846D0407047FF224100120691429B
:100D200001D900207047C017C04370471F22030C31
:100D300002D10F2200041CD0030E01D10002083A98
:100D4000030F01D10001121F830F01D18000921EF9
:100D5000002801DB4000521ED20551180212511822
:100D60001922904004D3491C002801D149084900A8
:100D700008467047C10FC90700D0404201229207C0
:100D80001143D3E701218907D0E7000010B5FF2305
:100D90001B0644009C421DD84C009C421AD80346B6
:100DA000124A0B4307D4401A02D3EFF3008010BD60
:100DB000EFF3008010BD081A06D2EFF30080012186
:100DC0009043C907084302E0EFF30080904380F3AB
:100DD000008810BD0D231B041A4204D011460020C8
:100DE00000F046F810BD00F05BF810BD0000009068
:100DF000C10D10B50906090E2ED0FF2931D07E296C
:100E00002DD319D0962916D2024675398A4005D0BD
:100E1000002402468A4003D3012302E00124F8E7BC
:100E200000230222CA41511E8843002B03D08018A0
:100E3000002C00D0904310BD0121420201D10122BB
:100E400000E00022C00FC0070029F4D0002AF2D130
:100E50007F21C905084310BDC00FC00710BD002188
:100E6000EFE74102FAD0014810BD00000000C07F4A
:100E7000C80212D54803400F002804D0C803C0435D
:100E8000012188407047EFF3008000010009032131
:100E90000907084380F3008870470020704700006E
:100EA00010B5024800F02BF810BD00000000C07F14
:100EB000754600F053F8AE46050069465346C00833
:100EC000C000854618B020B5FFF7BEF960BC00270A
:100ED0004908B6460026C0C5C0C5C0C5C0C5C0C506
:100EE000C0C5C0C5C0C5403D49008D46704710B55E
:100EF0000446C046C0462046FFF72DF910BD10B588
:100F00000C461107090F092904D00A290AD008291B
:100F10000CD104E011460820FFF7AAFF06E05106B5
:100F200006D501E0510601D50120C007214610BDBC
:100F3000D10607D501010909CC084907000E0006B2
:100F4000044309E0410F20024907000A0143200E33
:100F500000061D22D14101430846E7E700487047DB
:100F60009C10002001491820ABBEFEE726000200BD
:100F70007047000002F02CFA1049087000BF1049B9
:100F8000104802F051FA0D4908700F490D4802F05F
:100F90006BFA0A4908700D490A4802F09BFA0C499D
:100FA000084802F029FA0B480068401C094908600B
:100FB00002F0C2FB642002F0EAFDE0E749000020F5
:100FC00028000020940300202C0000203000002086
:100FD000340000203800002072B600BFFEE770B574
:100FE000044600252120005D022803D00420A063D0
:100FF00001251EE0206800680E21884321680860F2
:101000002068006840084000216808600120216CC9
:101010008840E16B486001212120015500BF00217B
:101020002020015500BF606B002802D02046616B74
:101030008847284670BD01462120405C704700006B
:1010400078B503460A460021DAE001268E4014688E
:101050003440002C7ED01579AD07AD0F012D04D0A2
:101060001579AD07AD0F022D18D198684E000325F4
:10107000B5400646AE4330464E00D568B5402843DD
:101080009860586801258D400646AE4330461026CC
:10109000556835402D098D40284358601579AD07B6
:1010A000AD0F032D0BD0D8684E000325B540064682
:1010B000AE4330464E009568B5402843D860157958
:1010C000AD07AD0F022D15D1CD08AE001D46203560
:1010D000A8594D07EE0E0F25B5400646AE433046E3
:1010E0004E07F60E1569B5402843CD08AD001E46E3
:1010F0002036705118684E000325B5400646AE43B1
:1011000030461579AD07AD0F4E00B5402843186045
:101110000326360455683540002D70D000BF3B4D86
:10112000AD6901263543394EB5613546AD69ED07E8
:10113000ED0F009500BF00BF354D8E08B600A859D1
:101140008D072E0F0F25B5400646AE4330460925C4
:10115000ED0600E053E0AB4201D100250AE02D4D41
:10116000AB4201D1012505E02B4DAB4201D1022557
:1011700000E005258E07360FB5402843244D8E0824
:10118000B600A851254DA8680546A5432846012666
:10119000360555683540002D02D0054625432846C2
:1011A0001E4DA860E8680546A54328460126760539
:1011B00055683540002D02D0054625432846174D79
:1011C000E86068680546A543284601267604556808
:1011D0003540002D02D00546254328460F4D686056
:1011E00028680546A543284601263604556835403B
:1011F000002D02D0054625432846084D2860491C8D
:101200001568CD40002D00D01FE778BD00100240CA
:1012100008000140000400480008004800040140A4
:1012200010B5426913460B401B040C4694432343FC
:10123000836110BD002A01D0816100E081627047A6
:10124000014800687047000010000020024641205D
:10125000805C20282FD100BF4020805C012801D174
:101260000220704701234020835400BF24234120E3
:1012700083541068006840084000136818601068C4
:10128000006801231B039843136818601068006806
:101290000843136818601068006801231843136836
:1012A000186020234120835400BF00234020835432
:1012B00000BF0020D5E70220D3E710B502460B4659
:1012C0004120805C20282ED100BF4020805C012876
:1012D00001D1022010BD01244020845400BF2424E9
:1012E0004120845410680068400840001468206061
:1012F000106801680F2424020846A0430146180222
:1013000001431068016010680068012420431468DC
:10131000206020244120845400BF002440208454B5
:1013200000BF0020D6E70220D4E770477047F8B529
:1013300004462068856920680668FF20013028403F
:10134000000A00280BD080203040C009002806D0B9
:10135000606C01210843606408022168C8610120B3
:1013600080022840800A00280BD080203040C0092D
:10137000002806D0606C082108436064C801216819
:10138000C861012040022840400A00280BD080207C
:101390003040C009002806D0606C02210843606418
:1013A00008022168C861676C0B203840002803D010
:1013B0003946204601F090FAF8BD70B50446206821
:1013C000856920680668606B002804D0324629468B
:1013D0002046636B984770BD7047000010B5044607
:1013E000002C01D1012010BD4120005D002805D155
:1013F000002140200155204600F010FA2421412010
:1014000001552068006840084000216808600F21ED
:1014100009066068884321680861206880680121A6
:10142000C903884321688860E068012806D101214A
:10143000C903A06808432168886005E0212189026A
:10144000A068084321688860E068022807D1206806
:1014500040680121C90208432168486006E020680D
:1014600040680121C90288432168486020684068BB
:1014700014490843216848602068C0680121C903F5
:1014800088432168C860616920690843A16909022D
:1014900008432168C860216AE06908432168086040
:1014A000206800680121084321680860002060640A
:1014B00020214120015500202063002142200155B8
:1014C000002090E70080000270470000FFB583B065
:1014D00004460C9F0E9E4120005D20287ED1002FE7
:1014E00002D00D98002805D101204002606401203F
:1014F00007B0F0BD00BF4020005D012801D10220EF
:10150000F6E701214020015500BFFFF799FE05468F
:1015100019230122D1032046009501F056FE002830
:1015200001D00120E4E72221412001554021422041
:1015300001550020606467620D986085002060633B
:1015400000960195204604A90EC901F0C1FC0028AF
:1015500006D000BF00214020015500BF0120C7E791
:10156000608DFF280CD90120208541480090208DF6
:10157000C2B201231B062046049901F0E9FD0BE0ED
:10158000608D20853A480090208DC2B201235B0611
:101590002046049901F0DCFD00BF334600220421FF
:1015A0002046009501F011FE002801D001209FE7A0
:1015B0002068406A616A0870606A401C6062208D21
:1015C000401E2085608D401E6085608D00282BD0D8
:1015D000208D002828D13346002200E045E08021FC
:1015E0002046009501F0F1FD002801D001207FE7A1
:1015F000608DFF280CD90120208500200090208DCF
:10160000C2B201231B062046049901F0A1FD0BE0A4
:10161000608D208500200090208DC2B201235B06E2
:101620002046049901F094FD608D0028B5D12A462A
:101630003146204601F008FE002801D0012057E77E
:1016400020202168C861206840680A490840216854
:10165000486020214120015500214220015500BF52
:101660004020015500BF002042E7022040E7000073
:101670000024008000E800FEFFB583B004460C9F04
:101680000E9E4120005D20287ED1002F02D00D98B3
:10169000002805D1012040026064012007B0F0BDA0
:1016A00000BF4020005D012801D10220F6E70121A2
:1016B0004020015500BFFFF7C3FD05461923012255
:1016C000D1032046009501F080FD002801D00120C3
:1016D000E4E721214120015540214220015500200D
:1016E000606467620D9860850020606300960195D4
:1016F000204604A90EC901F02BFC002806D000BF2B
:1017000000214020015500BF0120C7E7608DFF2860
:101710000CD9FF20208500200090208DC2B201232B
:101720001B062046049901F013FD0BE0608D208517
:1017300000200090208DC2B201235B062046049950
:1017400001F006FD00BF2A463146204601F0AFFDFC
:10175000002801D00120A1E7606A00782168886232
:10176000606A401C6062608D401E6085208D401E56
:101770002085608D00282BD0208D002828D133466D
:1017800000228021204600E043E0009501F01DFD8D
:10179000002801D0012081E7608DFF280CD9FF20AF
:1017A000208500200090208DC2B201231B06204618
:1017B000049901F0CDFC0BE0608D208500200090A5
:1017C000208DC2B201235B062046049901F0C0FCC3
:1017D000608D0028B7D12A463146204601F034FDFD
:1017E000002801D0012059E720202168C861206825
:1017F000406809490840216848602021412001557E
:1018000000214220015500BF4020015500BF0020AB
:1018100044E7022042E7000000E800FE10B586B071
:101820000446142101A8FEF7CEFD1E492068884217
:1018300035D100BF1C4840690121890508431A4978
:10184000486108464069012189050840009000BFB1
:1018500000BF03200190122002900020039003207B
:1018600004900120059001A91048FFF7E9FB00BF93
:101870000D48C0690121490508430B49C861084664
:10188000C069012149050840009000BF00BF002247
:101890000321172000F0BEF8172000F0ADF806B0C5
:1018A00010BD000000540040001002400014004829
:1018B0007047704703480068034909784018014998
:1018C00008607047100000201800002010B506487E
:1018D00000681021084304490860032000F006F85E
:1018E00000F064F8002010BD00200240F0B587B081
:1018F000044600270020029000BF2648806901218D
:1019000089040843234988610846806901218904C4
:101910000840009000BF00BF01A903A800F00AFA28
:10192000069F002F03D100F027FA064602E000F0E0
:1019300023FA460018493046FEF747FD401E029044
:1019400016481749086017491548C160144902989C
:1019500048600021124801618160816100F0A6FDAC
:101960000546002D13D10E4800F0D4FD0546002D8C
:101970000DD1162000F040F8042C07D20022214699
:10198000162000F047F80848046000E001252846CA
:1019900007B0F0BD0010024040420F000048014077
:1019A0004C030020E70300001400002008B500BF2E
:1019B00010488069012108430E4988610846806902
:1019C000C007C00F009000BF00BF00BF0846C0693D
:1019D000090408430749C8610846C069090408406A
:1019E000009000BF00BF00220321481F00F012F842
:1019F00008BD0000001002400146002905DBCB06AF
:101A0000DB0E01229A40024B1A6000BF70470000B3
:101A100000E100E070B504460D4616462946204612
:101A200002F064F870BD0000F8B5044600260025F9
:101A3000012109042068084088427AD100275948CA
:101A4000C0690903084000280DD100BF5548C0698E
:101A500008435449C8610846C06909040840009019
:101A600000BF00BF012750480068FF210131084036
:101A7000002816D14C48006808434B490860FFF71E
:101A8000DFFB064606E0FFF7DBFB801B642801D97D
:101A90000320F8BD44480068FF21013108400028B8
:101AA000F1D04048006A0321090208400546002D94
:101AB0002DD060680840A84229D03A48006A88437F
:101AC00005463848006A012109040843354908627F
:101AD0000846006A01210904884332490862084621
:101AE0000562E807C00F002811D0FFF7A9FB0646E2
:101AF00007E0FFF7A5FB801B2C49884201D9032092
:101B0000C7E72848006A022108400028F1D025488C
:101B1000006A032109028843616808432149086279
:101B2000012F05D10846C069090488431D49C861D1
:101B300000BF2078C007C00F002807D01948006BED
:101B400080088000A16808431649086320212068A6
:101B50000840202807D11348006B10218843E16812
:101B6000084310490863012149042068084088425D
:101B700007D10C48006B80218843616908430949FB
:101B800008630121890220680840884207D105487E
:101B9000006B402188432169084302490863002003
:101BA00077E700000010024000700040881300003A
:101BB00070B504460D46002C01D1012070BD584877
:101BC0000068C007C00FA8420ED255480068400800
:101BD000400028435249086008460068C007C00F0B
:101BE000A84201D00120E9E702212068084002282C
:101BF00014D1042120680840042807D149484068CE
:101C00000721090288434018464948604548406812
:101C1000F0218843A1680843424948602078C00702
:101C2000C00F002847D06068012808D13D480068EF
:101C3000012149040840002821D10120BEE7606845
:101C4000022808D1374800680121490608400028C9
:101C500015D10120B2E76068032808D13148406BF4
:101C6000012149040840002809D10120A6E72D4898
:101C7000006802210840002801D101209EE7294880
:101C80004068800880006168084326494860FFF783
:101C9000D7FA064607E0FFF7D3FA801B22498842AD
:101CA00001D903208AE71F4840680C210840616879
:101CB00089008842EFD11A480068C007C00FA842C7
:101CC0000ED91748006840084000284314490860AE
:101CD00008460068C007C00FA84201D001206DE788
:101CE000042120680840042808D10E4840680721D4
:101CF00009028843E16808430A49486000F04EF849
:101D000008494968F02211400909084A515CC84055
:101D1000074908600320FFF7E9FD00204EE70000B7
:101D2000002002400010024088130000384C0008D8
:101D30001C000020072202600A4A52689207920F94
:101D40004260084A5268F0231A408260054A52688D
:101D500007231B021A40C260034A1268D207D20F3F
:101D60000A607047001002400020024001480068ED
:101D7000704700001C00002000B5FFF7F7FF054981
:101D80004968072212021140090A034A515CC840FF
:101D900000BD000000100240484C0008F8B50025C6
:101DA000002400270026002000902B4845680C20C6
:101DB0002840002849D0042804D0082805D00C2841
:101DC00042D13EE02548009042E00F2080042840A8
:101DD000800C23490E5C2048C06A0007000F21498F
:101DE0000C5C0320C00328400121090488420AD169
:101DF0002246002319481946FEF746FA314601F0FB
:101E00005DFE07461BE00320C00328400321C903F1
:101E100088420AD12246002313481946FEF734FAB5
:101E2000314601F04BFE074609E0224600230B48ED
:101E30001946FEF729FA314601F040FE07460097A1
:101E400006E00948009003E000BF0448009000BF8E
:101E500000BF0098F8BD00000010024000127A0098
:101E6000184C0008284C0008006CDC02FEB5044643
:101E7000002C01D10120FEBD2078C007C00F002832
:101E800072D0FC4840680C21084004280CD0F94866
:101E900040680840082813D1F648406849030840C4
:101EA0000121090488420BD1F2480068012149044C
:101EB000084000286BD06068002868D10120DAE76C
:101EC00000BF6068012807D1EA48006801210904C1
:101ED0000843E849086031E0606800280ED1E54811
:101EE0000068012109048843E24908600846006847
:101EF000012189048843DF4908601FE060680528E4
:101F00000ED1DC480068012189040843D9490860E2
:101F100008460068012109040843D64908600DE01D
:101F2000D4480068012109048843D2490860084662
:101F30000068012189048843CE49086000BF6068B9
:101F4000002812D0FFF77CF9054606E0FFF778F984
:101F5000401B642801D903208DE7C6480068012191
:101F6000490408400028F1D011E0FFF769F905465F
:101F700006E0FFF765F9401B642801D903207AE7E2
:101F8000BC4800680121490408400028F1D1022121
:101F900020680840022862D1B64840680C210840F9
:101FA00000280CD0B3484068084008281CD1B1482C
:101FB0004068490308400121C903884214D1AD4853
:101FC000006802210840002804D0E068012801D000
:101FD000012050E7A7480068F82188432169C9001B
:101FE0000843A44908603AE0E068002820D0A148EE
:101FF0000068012108439F490860FFF721F9054661
:1020000006E0FFF71DF9401B022801D9032032E743
:1020100098480068022108400028F2D095480068DE
:10202000F82188432169C90008439249086016E0F5
:1020300090480068400840008E490860FFF700F9AA
:10204000054606E0FFF7FCF8401B022801D90320F3
:1020500011E788480068022108400028F2D10821D1
:1020600020680840082831D1E069002817D081484D
:10207000406A012108437F494862FFF7E1F80546BD
:1020800006E0FFF7DDF8401B022801D90320F2E645
:102090007848406A022108400028F2D016E07548CE
:1020A000406A4008400073494862FFF7C9F8054696
:1020B00006E0FFF7C5F8401B022801D90320DAE645
:1020C0006C48406A022108400028F2D104212068AF
:1020D0000840042872D1002001906648C069890632
:1020E000084000280ED100BF6248C069084361491A
:1020F000C8610846C06909040840009000BF00BFDD
:10210000012001905C480068FF210131084000284F
:1021100016D159480068084357490860FFF790F8FE
:10212000054606E0FFF78CF8401B642801D9032020
:10213000A1E651480068FF21013108400028F1D094
:1021400000BFA068012806D14A48006A012108435F
:10215000484908622AE0A06800280BD14548006A77
:102160004108490043480162006A0421884341490B
:1021700008621BE0A06805280CD13E48006A0421D3
:1021800008433C4908620846006A0121084339496E
:1021900008620BE03748006A400840003549086291
:1021A0000846006A042188433249086200BFA068DB
:1021B000002813D0FFF744F8054608E02BE0FFF7AE
:1021C0003FF8401B2D49884201D9032053E6294896
:1021D000006A022108400028F1D011E0FFF730F832
:1021E000054607E0FFF72CF8411B2448814201D93E
:1021F000032040E61F48006A022108400028F1D170
:102200000198012806D11B48C069012109078843AC
:102210001849C86100BF10212068084010285FD10C
:10222000606901282CD11348406B042108431149EF
:1022300048630846406B012108430E494863FEF796
:10224000FFFF054606E0FEF7FBFF401B022801D911
:10225000032010E60748406B022108400028F2D016
:102260000448406BF8218843A169C900084301492B
:10227000486335E000100240007000408813000001
:102280006069401D00280FD18648406B04218843B7
:10229000844948630846406BF8218843A169C90016
:1022A0000843804948631BE07E48406B0421084393
:1022B0007C4948630846406B400840004863FEF78D
:1022C000BFFF054606E0FEF7BBFF401B022801D911
:1022D0000320D0E57348406B022108400028F2D16A
:1022E000202120680840202852D16E4840680C21E7
:1022F00008400C280AD06B4840680840082811D1D3
:10230000684840684903084088420BD16548406BE3
:1023100001214904084000283AD0206A012837D01A
:102320000120A8E5206A002819D05E48406B0121F1
:10233000090408435B494863FEF782FF054606E04F
:10234000FEF77EFF401B022801D9032093E5554884
:10235000406B0121490408400028F1D018E05148A1
:10236000406B0121090488434E494863FEF768FF2A
:10237000054606E0FEF764FF401B022801D9032052
:1023800079E54848406B0121490408400028F1D113
:10239000606A00284FD0434840680C210840082854
:1023A00064D0606A022847D13E48006801210906CE
:1023B00088433C490860FEF743FF054606E0FEF708
:1023C0003FFF401B022801D9032054E5354800682F
:1023D0000121490608400028F1D100BF3148C06AF8
:1023E00000090001216B08432E49C862A16AE06A16
:1023F00008432C4949687B22D20391430843294969
:10240000486000BF084600680121090608432549C5
:102410000860FEF715FF054606E0FEF711FF401BBA
:10242000022801D9032026E51E480068012149063B
:1024300008400028F1D033E01A480068012109065D
:10244000884318490860FEF7FBFE054606E0FEF7E4
:10245000F7FE401B022801D903200CE51148006853
:102460000121490608400028F1D119E0606A0128DD
:1024700000D100E50B484668C76A0320C00330401E
:10248000A16A88420AD13907090F206B814205D120
:102490000F2080043040E16A884201D00120EAE444
:1024A0000020E8E4001002407047704710B5044671
:1024B000002C01D1012010BD3D20005D002805D178
:1024C00000213C200155204600F022F802213D2049
:1024D0000155211D206801F099FA0121462001557E
:1024E00000BF3E2001553F200155402001554120AD
:1024F000015500BF00BF4220015543200155442033
:1025000001554520015500BF3D2001550020D2E76F
:102510007047000001463D20405C012801D00120A9
:10252000704702233D2043540868C06801231843C4
:102530000B68D860104B0868984208D001239B07AD
:102540000868984203D00D4B086898420CD108687F
:1025500080684207520F062A0CD0086800680123E1
:1025600018430B68186005E00868006801231843E9
:102570000B6818600020D3E7002C014000040040E5
:10258000704770B504462068C56820680669022057
:102590003040022819D12840022816D1401F216856
:1025A000086101202077206880698007800F00285B
:1025B00003D02046FFF7E4FF05E0204600F098F83E
:1025C000204600F096F800202077042030400428B0
:1025D0001AD12840042817D1C0432168086102207D
:1025E000207720688069032109020840002803D071
:1025F0002046FFF7C5FF05E0204600F079F82046A9
:1026000000F077F80020207708203040082819D102
:102610002840082816D1C04321680861042020778B
:102620002068C0698007800F002803D02046FFF78C
:10263000A7FF05E0204600F05BF8204600F059F8BF
:10264000002020771020304010281AD12840102870
:1026500017D1C04321680861082020772068C0692D
:10266000032109020840002803D02046FFF788FF15
:1026700005E0204600F03CF8204600F03AF8002043
:102680002077F007C00F00280AD0E807C00F002805
:1026900006D00120C04321680861204600F02AF8D6
:1026A00080203040802808D12840802805D1C043B0
:1026B000216808612046FFF7F7FE4020304040289F
:1026C00008D12840402805D1C04321680861204630
:1026D00000F01CF820203040202808D12840202875
:1026E00005D1C043216808612046FFF7DEFE70BDBA
:1026F0007047704710B5044603492068884201D1ED
:10270000FFF7D8F810BD000000480140704700BF37
:10271000FEE7000010B5084800688069072109023B
:102720000840002803D00448FEF701FE02E00248FA
:10273000FEF743FE10BD0000F802002070B505460C
:102740006C6AA06B002802D00020A16B4863E06B8C
:10275000002802D00020E16B4863204600F016FDFF
:1027600070BD10B502460020CB07DB0F002B09D04F
:102770004223184341239B5C28242340282B01D06B
:10278000B023184302230B40022B09D144231843E2
:1027900041239B5C28242340282B01D0B0231843DD
:1027A0000123DB030B400124E403A34201D1B8233E
:1027B0001843102901D190231843202901D1202347
:1027C0001843402901D14023184313681B688343F1
:1027D0001468236010BD016889690222114049080C
:1027E000002902D000210268916201688969C90745
:1027F000C90F012251405140002904D10168896963
:102800001143026891617047F8B504464120005DAC
:1028100028210840282856D1206880690121090410
:102820000840070C206880697F2149040840050C96
:10283000206880688605B60D2068C068FE210840C3
:102840000090E06802282ED106202840F1110622CF
:102850001140884216D13546A06C401CA064A06C83
:10286000022838D10020A06408202168C86100BF78
:1028700000214020015500BF2A4639462046FEF778
:1028800055FD28E0009D0121C9032046FFF769FF9F
:1028900000BF00214020015500BF2A46394620468E
:1028A000FEF744FD17E00121C9032046FFF759FF59
:1028B00000BF00214020015500BF2A46394620466E
:1028C000FEF734FD07E008202168C86100BF002141
:1028D0004020015500BFF8BDF8B504460F46412021
:1028E000065D0021422001554E48E06200206085CF
:1028F000606C38436064282E03D0292E01D02A2E24
:1029000009D103212046FFF72CFF28214120015542
:102910004548606326E045492046FFF722FF2046F0
:10292000FFF759FF4120005D602819D02021412088
:1029300001552068806908404009002810D02068AF
:102940008069102108400009002806D01020216865
:10295000C861606C04210843606420202168C8615C
:1029600000206063256BA06B002829D0112D01D0B9
:10297000212D25D120680068012189030840884263
:1029800004D120680068884321680860A06BFEF7C6
:1029900052FB012810D02648A16B486300BF0021DC
:1029A0004020015500BFA06BFEF719FB002837D06F
:1029B000A06B416B884733E0204600F0E7FB2FE037
:1029C000E06B002829D0122D01D0222D25D12068BE
:1029D00000680121C9030840884204D120680068CA
:1029E000884321680860E06BFEF725FB012810D0C2
:1029F0000F48E16B486300BF00214020015500BF34
:102A0000E06BFEF7ECFA00280AD0E06B416B8847D8
:102A100006E0204600F0BAFB02E0204600F0B6FBDC
:102A2000F8BD00000000FFFFD12F00080380000068
:102A30003D27000870B504460D461A48E0620020A4
:102A40002063202141200155002142200155002012
:102A50006063042028408008002813D02068406A62
:102A6000616A0870606A401C6062208D002809D08D
:102A7000208D401E2085608D401E6085606C042185
:102A80000843606408492046FFF76BFE1020216868
:102A9000C86100BF00214020015500BF2046FEF75D
:102AA00013FD70BD0000FFFF03800000F3B581B08F
:102AB0000446206800680090029EE76A4120055D98
:102AC00020202168C861212D01D0292D06D17F4900
:102AD0002046FFF746FE2120206314E0222D01D07E
:102AE0002A2D07D17949491C2046FFF73AFE2220BA
:102AF000206308E0282D06D17449891C2046FFF781
:102B000030FE00202063206840680121C90308438B
:102B100021684860206840686D4908402168486025
:102B20002046FFF758FE0121890300980840800BDA
:102B300000280CD020680068884321680860A06BDA
:102B4000002817D0A06B00684068608512E0012162
:102B5000C90300980840C00B00280BD0206800680B
:102B6000884321680860E06B002803D0E06B0068B0
:102B700040686085042030408008002813D004217C
:102B80003046884306462068406A616A0870606A79
:102B9000401C6062208D002805D0208D401E2085BD
:102BA000608D401E6085608D002803D0606C04211C
:102BB00008436064102030400009002839D01021FB
:102BC000009808400009002833D0608D002820D1EB
:102BD0004120005D282807D14805874204D13146AD
:102BE0002046FFF727FF24E04120005D29280CD173
:102BF0003848874209D010202168C8612046FFF775
:102C0000EAFD204600F068F813E010202168C86152
:102C10000FE010202168C861606C042108436064E3
:102C2000002F02D08805874203D1616C2046FFF750
:102C300053FE00214220015500206063606C002893
:102C40000CD0616C2046FFF747FE4120005D28282C
:102C50003AD131462046FFF7EDFE35E0E06A1D49E6
:102C6000884212D0204600F037F81A48E06220214E
:102C7000412001550020206300BF00214020015564
:102C800000BF2046FEF720FC1EE04120005D222808
:102C90000DD12021412001550020206300BF0021DB
:102CA0004020015500BF2046FEF702FE0CE0202127
:102CB000412001550020206300BF00214020015524
:102CC00000BF2046FEF7F5FDFEBD000001800000BC
:102CD00000E800FE0000FFFF70B5044620680568AC
:102CE000002142200155012080032840800B00284C
:102CF00007D02068006801218903884321680860A3
:102D00000CE00120C0032840C00B002806D020683A
:102D100000680121C9038843216808604120005DE3
:102D2000292811D12821412001552120206301218A
:102D30002046FFF716FD00BF00214020015500BFCF
:102D40002046FEF7B6FD14E04120005D2A2810D190
:102D50002821412001552220206302212046FFF72F
:102D600000FD00BF00214020015500BF2046FEF7B6
:102D70009FFD70BDF7B584B004460E460020039059
:102D80002068876900250698029010203840102896
:102D900054D12168C8613DE0701C00283AD0FEF78C
:102DA0004FFA0299401AB04201D8002E32D1206861
:102DB000406801218903084001904220005D009095
:102DC0002068806949000840C00B00280ED04910D7
:102DD000019888420AD00098202807D020684068CF
:102DE000084321684860FEF72BFA02900AE0FEF7DC
:102DF00027FA0299401A192804D9202005430120F6
:102E0000039006E0206880692021084040090028DE
:102E1000EDD000BF206880692021084040090028CB
:102E200002D103980028B7D00398002802D12020AF
:102E30002168C86104200543012003902068876948
:102E4000FF2001303840FF210131884206D10120A6
:102E5000054300022168C86101200390012080021F
:102E6000384001218902884206D108200543C0016B
:102E70002168C861012003900120400238400121EF
:102E80004902884206D10220054300022168C86138
:102E9000012003900398002815D02046FFF79BFCE3
:102EA000206840680949084021684860606C2843F0
:102EB000606420214120015500214220015500BFBE
:102EC0004020015500BF039807B0F0BD00E800FEA8
:102ED000FFB581B0044615461E460A9F1B48F2B254
:102EE000002300902046029900F032F9394620462E
:102EF0000B9A00F0DCF9002802D0012005B0F0BDEB
:102F0000012E03D1E8B22168886211E0FF2000029F
:102F10002840001221688862394620460B9A00F04A
:102F2000C6F9002801D00120E8E7E8B221688862EC
:102F30000B983B46002240210090204600F045F9C6
:102F4000002801D00120D9E70020D7E70020008029
:102F5000FFB581B0044615461E460A9F1B48F2B2D3
:102F6000C30200902046029900F0F2F8394620464C
:102F70000B9A00F09CF9002802D0012005B0F0BDAA
:102F8000012E03D1E8B22168886211E0FF2000021F
:102F90002840001221688862394620460B9A00F0CA
:102FA00086F9002801D00120E8E7E8B221688862AC
:102FB0000B983B46002280210090204600F005F946
:102FC000002801D00120D9E70020D7E700200080A9
:102FD000F7B504461646E56A019F00BF4020005D34
:102FE000012801D10220FEBD01214020015500BF72
:102FF000202038404009002809D0202030404009D6
:10300000002804D039462046FFF750FD96E01020F6
:103010003840000900283AD010203040000900282C
:1030200035D0608D002821D14120005D282808D1AD
:1030300001204006854204D139462046FFF7FAFCBC
:103040007CE04120005D29280CD14048854209D010
:1030500010202168C8612046FFF7BDFB2046FFF71E
:103060003BFE6BE010202168C86167E010202168FA
:10307000C861606C042108436064002D02D088059B
:1030800085425BD1616C2046FFF726FC56E00420A8
:103090003840800800281ED00420304080080028D6
:1030A00019D0608D00280CD02068406A616A0870D1
:1030B000606A401C6062208D401E2085608D401E2D
:1030C0006085608D002839D12048854236D0204661
:1030D000FFF702FE32E008203840C008002809D07F
:1030E00008203040C008002804D039462046FFF7A9
:1030F0008BFB23E002203840400800281ED002202D
:1031000030404008002819D0608D00280DD0606A3A
:10311000007821688862606A401C6062608D401E91
:103120006085208D401E208508E001200006854234
:1031300001D0002D02D12046FFF7CEFD00BF0021B7
:103140004020015500BF00204DE700000000FFFFB8
:10315000F8B5069C8D05AD0D1604FF273F043E40D3
:1031600035431D4325436D006D08009505686E6865
:10317000650D0127BF023D40034F3D43AE43009D17
:103180002E4305686E60F8BDFF63FF0310B504466B
:103190004120005D60280DD12021412001550020F3
:1031A000206300BF00214020015500BF2046FEF7EC
:1031B000BCF809E00020206300BF00214020015539
:1031C00000BF2046FEF708F910BDF8B504460D46CD
:1031D00017461E462CE031462046069AFFF7CAFDE8
:1031E000002801D00120F8BD701C002820D0FEF777
:1031F00027F80699401AB04201D8002E18D120684D
:1032000080692840A84201D1012000E00020B84296
:103210000ED1606C202108436064412001550021DB
:103220004220015500BF4020015500BF0120DAE7D0
:10323000206880692840A84201D1012000E00020D8
:10324000B842C8D00020CEE770B504460D461646F9
:1032500024E0324629462046FFF78CFD002801D0A5
:10326000012070BDFDF7ECFF801BA84201D8002DA6
:1032700014D12068806920210840400900280DD120
:10328000606C0843606441200155002142200155D3
:1032900000BF4020015500BF0120E2E7206880699F
:1032A0002021084040090028D3D00020D9E770B57C
:1032B00004460D46164628E0324629462046FFF7CA
:1032C00059FD002801D0012070BD681C00281CD0C9
:1032D000FDF7B6FF801BA84201D8002D15D120684C
:1032E000806902210840400800280ED1606C20212E
:1032F000084360644120015500214220015500BF70
:103300004020015500BF0120DEE7206880690221CE
:10331000084040080028CFD00020D5E7F8B5044683
:103320000D46472109062046FDF738FC0090294646
:10333000009801F04DFB074639460C48FDF72EFC7E
:1033400006460B49304601F09BFB01D2084E05E0D2
:103350000021304601F012FB00D20026304600F07A
:1033600013FF0746FDF7CAFC80B2F8BDACC5A73B0A
:1033700000FF7F47F8B504460D4617461E46002C51
:1033800001D0002D02D10220C043F8BD2560277175
:103390002661472109060698FDF700FCA0600A484F
:1033A000A16801F015FBE06031460698FFF7B6FF13
:1033B000A082A18A204600F0AFF804480090204681
:1033C000009900F0B2F8E0E70000C8413F4100007A
:1033D000F8B58024044D054E2B4622460449054885
:1033E0000096FFF7C7FFF8BD0AD7233C0000A041B5
:1033F000F802002094030020F8B506460C466A4601
:103400000221304600F046F80546002D08D16846F6
:103410000088FDF7B7FC0746024901F0D9FA2060A1
:103420002846F8BD0AD7A33AFEB504460D4601AAC0
:103430000421204600F02EF806460A4A04212046C0
:1034400000F028F8002E0BD16846808807B2384675
:10345000FDF790FC0090A16801F0BAFA286000BF67
:103460003046FEBD20000020F8B504460D466A46F1
:103470000321204600F00EF80646002E08D16846CB
:103480000088FDF77FFC0746E16801F0A1FA28609B
:103490003046F8BDF0B585B004460D4616466420AA
:1034A000022103AA009201910290217901232A4668
:1034B0002068FEF70BF80746002F03D00020C0431A
:1034C00005B0F0BD6946087B0002497B08433080A7
:1034D0000020F5E7FEB506460C4601AA012130465C
:1034E000FFF7D8FF05460A4A01213046FFF7D2FF11
:1034F000002D0BD16846808807B23846FDF73AFCAC
:103500000449009001F064FA206000BF2846FEBD27
:1035100022000020ACC5273670B505460C46224671
:103520000521284600F00AF870BD70B505460C4626
:1035300022460021284600F001F870BDF0B585B0A4
:1035400004460E4615462804010E6846017345736D
:103550006420022103AA00920191029021790123A3
:1035600032462068FEF788F80746002F01D105B0E3
:10357000F0BD0020C043FAE700BF01214902092045
:10358000C006FDF74DFEFF20F53000F000FBF4E72C
:1035900000B59DB01C22184916A8FCF71FFE00219B
:1035A00016A800F006FB154908601C2212491C31C0
:1035B0000FA8FCF713FE00210FA800F0FAFA10493B
:1035C00008601C220C49383108A8FCF707FE0021CE
:1035D00008A800F0EEFA0B4908601C220649543195
:1035E00001A8FCF7FBFD002101A800F0E2FA064962
:1035F00008601DB000BD0000A84B00080C000020B2
:1036000000000020040000200800002000B587B062
:10361000142102A8FCF7D7FE00BF2C484069012105
:1036200089050843294948610846406901218905FF
:103630000840019000BF00BF00BF24484069491105
:10364000084322494861084640690121490408406D
:10365000019000BF00BF00BF1C48406949000843FB
:103660001A494861084640690121890408400190CF
:1036700000BF00BF012216490920C006FDF7DAFD90
:103680000022C0210920C006FDF7D4FD002202213E
:103690001048FDF7CFFD0E48C03002900120039086
:1036A00000200490059002A90920C006FDF7C8FC7F
:1036B000022002900120039000200490059002A9AE
:1036C0000448FDF7BDFC07B000BD0000001002403B
:1036D000130200000004004810B5134813490860A5
:1036E000134848600021114881600121C160002118
:1036F000016141618161C1610162FDF76FFE0028D6
:1037000001D0FDF769FC00210848FDF79FFD002866
:1037100001D0FDF761FC00210448FDF7CEFD002833
:1037200001D0FDF759FC10BD00540040F802002004
:103730002B1D200000BFFEE7F0B587B01B480168D5
:103740001B48006801F0C8F90190FDF7FDF9044637
:10375000184A194BFDF7D4F80391029017480068F6
:10376000FDF7F2F90646039B029AFDF7A6F80591CC
:103770000490FCF7DBFE1149086000210F48006847
:1037800001F0FCF806D800200C49086001200C4923
:10379000087008E00B490948006801F071F902D28D
:1037A00008480649086007B0F0BD0000440000204A
:1037B0002C0000209A9999999999B93F40000020CE
:1037C000480000200000704270B505460C46002DF0
:1037D00006D0012D1AD0022D2FD0032D73D143E036
:1037E000002C01D0012000E00020024602214148C7
:1037F000FDF720FD002C01D1012000E00020024651
:1038000002210920C006FDF715FD71E0002C01D052
:10381000012000E00020024680210920C006FDF7BB
:1038200009FD002C01D1012000E0002002461021FA
:103830000920C006FDF7FEFC5AE0002C01D0012053
:1038400000E00020024640210920C006FDF7F2FCFE
:10385000002C01D1012000E00020024601210920B6
:10386000C006FDF7E7FC43E0002C01D0012000E09A
:103870000020024602211F48FDF7DCFC002C01D18C
:10388000012000E00020024602210920C006FDF7C9
:10389000D1FC002C01D0012000E000200246802154
:1038A0000920C006FDF7C6FC002C01D1012000E074
:1038B0000020024610210920C006FDF7BBFC002CA9
:1038C00002D0012001E012E0002002464021092040
:1038D000C006FDF7AFFC002C01D1012000E0002064
:1038E000024601210920C006FDF7A4FC00E000BF4C
:1038F00000BF70BD0004004801210320FFF764FFF2
:1039000000BF0C480078002810D00020094908703A
:1039100000210846FFF758FF074800F038F907482C
:103920000749086001210020FFF74EFF012000F049
:103930002EF9E6E7480000208813000000007042DE
:1039400040000020704710B50446002000F03EFD06
:1039500010BD000010B5FCF719FC044600F0B2FEE3
:10396000002803D001200007024948602046FCF7E8
:1039700011FC10BD00ED00E000B597B034210AA89D
:10398000FCF721FD0020069007900890099018216F
:103990006846FCF718FD02200A9001200D901020C7
:1039A0000E900220139081031491C10415910021FF
:1039B00016910AA8FEF75AFA002801D0FDF70CFB71
:1039C000072006900220079000200890099001210E
:1039D00006A8FEF7EDF8002801D0FDF7FDFA20203B
:1039E0000090002003906846FEF71EF8002801D0E2
:1039F000FDF7F2FA17B000BD7047000010B502489D
:103A0000FEF7BFFD10BD00004C03002010B502689A
:103A1000254B984206D001239B07984202D0234BA6
:103A2000984205D170241346A3431A464B681A43A3
:103A30001D4B98420FD001239B0798420BD01B4B84
:103A4000984208D01A4B984205D01A4B984202D09F
:103A5000194B984206D1032424021346A3431A4665
:103A6000CB681A4380241346A3434C6923431A4668
:103A700002608B68C3620B6883620B4B984205D06F
:103A80000C4B984202D00C4B984201D10B69036356
:103A9000012343610369DB07DB0F002B03D00369BC
:103AA0005B085B00036110BD002C01400004004076
:103AB000002000400044014000480140F8B582B2B7
:103AC0008BB2040C0D0C10465843002126465E4371
:103AD000370C36048019794116466E43370C36048C
:103AE0008019794126466E438919F8BD10B5002822
:103AF00019DB1A4A03231B02D21883089B00D258F1
:103B00008307DC0EFF23A3409A438B071B0E840719
:103B1000E40EA3401A43114B032424021B1984080A
:103B2000A4001A5118E00E4A03071B0F083B9B081C
:103B30009B00D2588307DC0EFF23A3409A438B07D8
:103B40001B0E8407E40EA3401A43054B0407240F01
:103B5000083CA408A4001A5110BD000000E100E0D8
:103B60001CED00E0FDF7B2FEFFF706FFFFF74EFD8C
:103B7000FFF7B2FDFFF70CFD00F016F800BFFEE7FF
:103B800001460020842901D0CA1C1018704770B566
:103B900004462546002D01D0294600E001210846B3
:103BA00000F0F2FB002070BD10B500F069FC0020B1
:103BB00010BD7FB504460D466069002814D0A06989
:103BC000002811D00820205EFFF7DAFF0646616961
:103BD000A0690096019102902B46226921686068D5
:103BE00000F02DFD039013E00820205EFFF7C8FFD2
:103BF000064603A800960190238A9AB22B462168B4
:103C0000606800F0EBFC012802D0002004B070BD19
:103C10000398FBE7F8B505460E46174807681748AE
:103C20000068001D00F0EAFA681C002808D1002E88
:103C300006D012480168091D114800F02AFB1AE05D
:103C40007C190E4800684460BC4207D20B480168EA
:103C5000091D0C48006800F001FB0CE007480168F2
:103C6000091D0948006800F0F9FA08480068844214
:103C700001D206480460F8BD600000204C0000201E
:103C80008804002054000020500000207C00002008
:103C900010B5044600F00AFB20480068401C1F498C
:103CA00008601F480068002808D11D4804600846C5
:103CB000006801280ED100F01FF90BE019480068D8
:103CC000002807D116480068C06AE16A884201D816
:103CD0001348046014480068401C134908601349E5
:103CE000E06A0968884202D91049E06A0860142233
:103CF000E16A51430E4A8818211D00F0CAFA00F00B
:103D0000E3FA08480068002807D005480068C06A40
:103D1000E16A884201D200F02BFB10BD5C0000205C
:103D20004C00002068000020780000206400002083
:103D3000AC03002010B516E000F0B8FA0C48C068DB
:103D4000C468201D00F05AFA0A480068401E09495C
:103D5000086009480068401E0749086000F0B4FA8E
:103D6000204600F00BF8044800680028E4D110BD9C
:103D7000740400205C0000205800002010B50446A8
:103D80005120005D002806D1206B00F0B1FA2046DA
:103D900000F0AEFA13E05120005D012803D1204667
:103DA00000F0A6FA0BE05120005D022801D10120AD
:103DB00000E00020002802D172B600BFFEE710BD6F
:103DC00030B503239B0217484407640F002C05D02D
:103DD000C01DC008C000134C041B1B1B0246124C24
:103DE00022600024104D6C60D0180838C008C00054
:103DF0000E4C206000240D4D2D686C600B4D2D681D
:103E00002C601146441A4C60084C24680C60084D24
:103E10004C682C60074D4C682C600124E407064D6B
:103E20002C6030BD9C040020880000209000002001
:103E300098000020940000209C00002000BFFFF7A5
:103E400079FF034800680128F9D900F091FAF6E7F4
:103E5000AC030020FFB581B00F460A9E0C9C216B7D
:103E60000398401E8000081800900098C008C00009
:103E7000009000984007400F002801D1012000E089
:103E80000020002802D172B600BFFEE7002508E03E
:103E9000795D204634304155785D002800D102E03C
:103EA0006D1C102DF4D300BF002143200155072EB7
:103EB00000D30626E66266640020A064201D00F0A0
:103EC000CAF92046183000F0C6F924610720801B8B
:103ED000A06164620020E064002150200155049A32
:103EE0000199009800F040F920600B98002801D05B
:103EF0000B98046005B0F0BD10B5002406E0142155
:103F000061430E4A881800F099F9641C072CF6D317
:103F10000B4800F093F90B4800F090F90A4800F0C4
:103F20008DF90A4800F08AF9094800F087F9044839
:103F30000849086003480849086010BDAC03002028
:103F4000380400204C040020600400207404002089
:103F500088040020500000205400002010B50146C5
:103F6000164800E0006803688B42FBD302464368B2
:103F70009B188B4204D143684C681B19436001466F
:103F80000A464B689B180468A34211D10C4C036885
:103F90002468A34208D04B68046864681B194B600E
:103FA00003681B680B6005E0054B1B680B6001E0B4
:103FB00003680B60884200D0016010BD88000020BB
:103FC000900000200B4909680968002901D10121EE
:103FD00000E00021002904D00021C943064A1160F5
:103FE00006E004490968C968C868034A4168116065
:103FF00070470000500000207C00002010B5002019
:104000000749086188617D21C90006480068FCF7FE
:10401000DCF9401E024948610720086110BD00001C
:1040200000E000E01C00002007480068401C002859
:1040300001D1012000E00020002802D172B600BFAB
:10404000FEE772B600BFFEE7A0000020F8B5044608
:104050000020009000F05EFA3E480068002801D180
:10406000FFF7AEFE3C4800682040002861D1002CDC
:1040700015D008346007400F002810D06007400FAB
:104080000821081A04196007400F002801D10120F7
:1040900000E00020002802D172B600BFFEE7002C2D
:1040A00047D02E480068844243D82D4E30460568DC
:1040B00001E02E462D686868A04202D228680028D8
:1040C000F7D124480068854233D03068083000902A
:1040D000286830606868001B102813D92F197807EA
:1040E000400F002801D1012000E00020002802D16B
:1040F00072B600BFFEE76868001B78606C603846E7
:10410000FFF72CFF154968680968081A1349086009
:104110000846006813490968884203D20F480068BE
:10412000104908600C496868096808436860002005
:10413000286000F065FB00984007400F002801D17F
:10414000012000E00020002802D172B600BFFEE787
:104150000098F8BD900000209C00002094000020F2
:104160008800002098000020001F01231B06036028
:10417000001F0160001F034B0360143802602038E9
:10418000704700002940000870B50546FCF730FE76
:1041900004460146284600F09FFC7F263F22BF23AD
:1041A000FF21F60512061B060906002D0CDA9842BF
:1041B00002D343008B420CD9904219DD4000884263
:1041C00011D915E0044613E0984207D943008B4209
:1041D00004D83146204600F07FFCF3E7904207DB2D
:1041E0004000884204D83146204600F081FBE9E7D0
:1041F00060004008E90FC907084370BD01460A691D
:104200004B68886898608B68486858605068884236
:1042100001D188685060002008611068401E10605D
:1042200010687047034B0360034B0B6080231360DF
:1042300070470000A4000020F8000020014608316B
:1042400041600021C943816001460831C1600161BC
:1042500000210160704700210161704710B50246DE
:104260000B685C1C002C01D1106907E01046083077
:1042700000E04068446824689C42FAD944684C6075
:104280004C68A160886041600A611468641C146015
:1042900010BD42684A6093688B6093685960916072
:1042A000086103685B1C03607047000072B6054834
:1042B0000068401C03490860BFF34F8FBFF36F8F46
:1042C00070470000A000002008480068002802D1C4
:1042D00072B600BFFEE705480068401E034908604B
:1042E00008460068002800D162B67047A000002090
:1042F00070B506463546002E35D0083D2C461A4985
:10430000606809680840002801D0012000E0002012
:10431000002802D172B600BFFEE72068002801D154
:10432000012000E00020002802D172B600BFFEE7A5
:104330000D49606809680840002814D020680028EA
:1043400011D10949606809688843606000F0E2F8AB
:104350000649606809684018044908602046FFF76C
:10436000FDFD00F04DFA70BD9C000020940000207F
:104370000120000703494860BFF34F8FBFF36F8FE1
:104380007047000000ED00E070B504460025002CE9
:1043900014D00D480068002801D1012000E0002061
:1043A000002802D172B600BFFEE700F0B3F800218A
:1043B0002046FFF72FFC00F023FA0546002D01D11F
:1043C000FFF7D6FF70BD00008400002070B50546E1
:1043D000FFF76CFF002D02D12248006800E028465C
:1043E0000446201DFFF70AFFA06A002803D02046DC
:1043F0001830FFF703FF1C480068401C1A4908608A
:1044000018480068844209D1211D1848FFF741FF70
:1044100017480068401C1649086009E01548006804
:10442000401E144908602046FFF7A8FCFFF7CAFDAC
:10443000FFF74AFF10480068002811D009480068BB
:1044400084420DD10D480068002801D1012000E010
:104450000020002802D172B600BFFEE7FFF788FFF8
:1044600070BD00004C000020780000207404002083
:10447000580000205C00002068000020840000201C
:1044800010B586B000200590049003AA04A905A8E1
:10449000FFF7C8FE00220499059813460092019187
:1044A000029015A11648039A00F0C9F81549086052
:1044B00008460068002801D0012400E00024012CF7
:1044C0000DD172B60020C0430F49086001200F498A
:1044D000086000200E49086000F064F80AE0601CE3
:1044E000002801D0012000E00020002802D172B68F
:1044F00000BFFEE706B010BD49444C450000000077
:104500003D3E0008800000207C0000206800002064
:104510006000002002480068401C014908607047A4
:10452000840000201A480068002803D0012019499F
:1045300008602CE00020174908601748016805E072
:10454000002902D172B600BFFEE7491E142048437D
:10455000124A1058002801D1012000E00020002854
:10456000EED114224A430D4BD01842685268426083
:10457000024608324368934202D142685268426060
:104580004268D268064B1A600348016000BF70475A
:10459000840000207000002064000020AC03002094
:1045A0004C00002010B50B48006AFF2109040843A5
:1045B000084908620846006AFF21090608430549C0
:1045C0000862FFF71BFD002003490860FBF7CAFDE6
:1045D000002010BD00ED00E0A0000020FFB585B078
:1045E0001746B800FFF732FD0646002E0BD05420C8
:1045F000FFF72CFD0446002C01D0266304E0304672
:10460000FFF776FE00E00024002C13D0002151209B
:10461000015500220F990E986B4613C303923A4638
:10462000089B06990598FFF715FC2046FFF730FB1D
:10463000012501E00025ED43284609B0F0BDFFB596
:1046400085B00E9F0F9E109C002E01D0012000E02F
:104650000020002802D172B600BFFEE7002C01D076
:10466000012000E00020002802D172B600BFFEE762
:10467000542003900398542801D1012000E0002029
:10468000002802D172B600BFFEE7002C15D0002E24
:1046900013D025462E6302212C465120415500207F
:1046A00004A9009702950191039005A80FC8FFF790
:1046B000D1FB2846FFF7ECFA01E0002004900498B3
:1046C00009B0F0BDF8B5002000904248006800280D
:1046D00072D141480068451C3F480560002D1CD13F
:1046E0003E4800680068002801D1012000E0002059
:1046F000002802D172B600BFFEE738480768384884
:104700000068364908603648076036480068401C33
:1047100034490860FFF756FC00BF33480068854203
:104720003DD300BF2D4800680068002801D101205A
:1047300000E00020002804D00020C0432A4908607F
:104740002CE026480068C068C4686668B54202D29A
:104750002548066022E0201DFFF750FDA06A0028D2
:1047600003D020461830FFF749FD2049E06A096868
:10477000884202D91D49E06A08601422E16A514367
:104780001B4A8818211DFFF784FD1A49E06A096851
:10479000C96A8842C6D301200090C3E700BF15480C
:1047A0000068C06A1421484311490858012801D9FA
:1047B0000120009005E0FFE70F480068401C0E490B
:1047C00008600E480068002801D001200090009881
:1047D000F8BD000084000020600000205000002090
:1047E00054000020740000207C00002064000020A1
:1047F000AC0300204C0000206C0000207000002062
:1048000070B50024002632480068002802D172B634
:1048100000BFFEE7FFF74AFD2D480068401E2C4907
:1048200008600846006800284DD12A480068002822
:1048300049D022E02848C068C46820461830FFF7F5
:10484000DDFC201DFFF7DAFC2449E06A0968884294
:1048500002D92249E06A08601422E16A5143204AE1
:104860008818211DFFF715FD1E49E06A0968C96A0D
:10487000884202D301201C490860174800680028BC
:1048800001D1012000E000200028D3D0002C01D06D
:10489000FFF798FB15480568002D0DD000BFFFF706
:1048A00011FF002802D001200F4908606D1E002D65
:1048B000F5D100200D4908600B480068002802D09F
:1048C0000126FFF755FDFFF7FFFC304670BD0000E5
:1048D000840000205C0000206004002064000020B0
:1048E000AC0300204C000020700000206C00002071
:1048F00070B501250400ED074C4020D4441A01D2C4
:10490000001B0919C60D4B00F2B2FF2A29D01B0E5D
:104910002CD000020C02D31A2C43DC40284305198A
:1049200010D2280A02D3401C6D0611D0761EF6055F
:104930008019FF2A00DA70BDC00DC00570BD694046
:1049400000F0D0F801200543C541521C761CE8E771
:1049500064089C40C90161408900E7D10124A0435B
:10496000E4E71B0E440200D0034870BD002AFCD1CE
:10497000C00FC00770BD00BF0000C07F0123020050
:10498000DB050A430DD4DA4203D49A4207D48842A5
:104990007047D84214D4D94212D48842704780421A
:1049A0007047DA4203D59A42F9D5814270475B00DD
:1049B0004200DA4204D24A00DA4201D28142704710
:1049C00010B5024AFCF7E2F910BD00BF0900160459
:1049D00070B5420064414B005C41120E39D01B0E91
:1049E00038D0FF2A3CD0FF2B3AD040024902400A7F
:1049F000490A060045184E43000A090AD2184843DE
:104A0000ED017F3A0104731A4019190C4318990FEC
:104A100004D001215B0849075B1A521CD80904D352
:104A2000401CF50301D19D0607D0FF2A08D2D50509
:104A300006D0E4072043401970BD0125A843F4E7E0
:104A4000002A01DCE00770BD2402FF202043C005DE
:104A500070BD1B0EFF2A03D0FF2B01D0E00770BDF5
:104A6000FF2645003606B54206D84D00B54203D8AC
:104A7000D218FF2A00D0E7E7004870BD0000C07FD1
:104A800001230A00DB0502430DD4DA4203D49A4223
:104A900007D481427047D94214D4D84212D48142FB
:104AA000704789427047DA4203D59A42F9D5884265
:104AB00070475B004A00DA4204D24200DA4201D277
:104AC000884270474840414010B5024A4840FCF7D0
:104AD0005DF910BD0900160470B501250400ED074D
:104AE0004C4022D4441A02D26C40001B0919C60D56
:104AF0004B00F2B2FF2A4BD01B0E50D000020C022A
:104B0000D31A2C43DC40A843051B05D5AD0019D3AF
:104B10006D08761E521E37D0F605280A01D280197C
:104B200070BD70416D0603D070BD6940FFF7E6FEB1
:104B30009C4009026140490001D0401E70BD012423
:104B4000A04370BD6D081DD001202B0C01D12D0498
:104B500010302B0E01D12D0208302B0F01D12D0169
:104B6000001DAB0F01D1AD00801CEB0F01D16D001A
:104B7000401C6D00361A121A680AF5054019012A00
:104B800002DB70BD002070BDC036300AC00770BDAA
:104B90001B0E440201D1FF2B00D1024870BD002A38
:104BA000F0D070BD0000C07FAC4C00084739000851
:104BB0000000000000000000800000000000000075
:104BC00000000000904C0008750F00080000000075
:104BD00000000000000100000000000000000000D4
:104BE000984C000879350008000000000000000023
:104BF000800000000000000000000000A04C000841
:104C0000F9380008000000000000000080000000EB
:104C10000000000000000000020304050607080968
:104C20000A0B0C0D0E0F10100102030405060708F5
:104C3000090A0B0C0D0E0F10000000000000000010
:104C40000102030406070809000000000102030432
:104C50008182838485868788898B8C8D8E8F9192C3
:104C600093959697999A9C9D9FA0A2A3A5A7A8AA61
:104C7000ACAEB0B2B3B5B7B9BCBEC0C2C5C7C9CC83
:104C8000CED1D4D7D9DCDFE2E6E9ECF0F3F7FAFED7
:104C90004144435461736B004C45445461736B0051
:104CA000506F7765725461736B00000053746172CA
:104CB000745461736B730000D84C0008000000202E
:104CC000A4000000040100087C4D0008A40000209E
:104CD0005C16000020010008000000000000000039
:104CE00000000000000000000000000004000000C0
:104CF0000100000000127A00000000000000000027
:104D000000000000000000000000000000000000A3
:104D10000000000000000000000070420000484257
:104D20000000000000000000000000000000000083
:104D30000000000000000000000000000000000073
:104D40000000000000000000000000000000000063
:104D50000000000000000000000000000000000053
:104D60000000000000000000000000000000000043
:0C4D70000000000000000000AAAAAAAA8F
:04000005080000C12E
:00000001FF
